{
  "contractName": "ExchangeShop",
  "abi": [
    {
      "constant": true,
      "inputs": [],
      "name": "REMITTANCE_FEE",
      "outputs": [
        {
          "name": "",
          "type": "uint256"
        }
      ],
      "payable": false,
      "stateMutability": "view",
      "type": "function"
    },
    {
      "constant": true,
      "inputs": [],
      "name": "owner",
      "outputs": [
        {
          "name": "",
          "type": "address"
        }
      ],
      "payable": false,
      "stateMutability": "view",
      "type": "function"
    },
    {
      "constant": true,
      "inputs": [
        {
          "name": "",
          "type": "bytes4"
        }
      ],
      "name": "currencies",
      "outputs": [
        {
          "name": "",
          "type": "uint256"
        }
      ],
      "payable": false,
      "stateMutability": "view",
      "type": "function"
    },
    {
      "constant": true,
      "inputs": [
        {
          "name": "",
          "type": "address"
        }
      ],
      "name": "unlockedRemittances",
      "outputs": [
        {
          "name": "",
          "type": "uint256"
        }
      ],
      "payable": false,
      "stateMutability": "view",
      "type": "function"
    },
    {
      "inputs": [],
      "payable": false,
      "stateMutability": "nonpayable",
      "type": "constructor"
    },
    {
      "anonymous": false,
      "inputs": [
        {
          "indexed": false,
          "name": "remittanceOwner",
          "type": "address"
        },
        {
          "indexed": false,
          "name": "remittanceAddress",
          "type": "address"
        }
      ],
      "name": "LogAddedRemmitance",
      "type": "event"
    },
    {
      "anonymous": false,
      "inputs": [
        {
          "indexed": false,
          "name": "name",
          "type": "bytes4"
        },
        {
          "indexed": false,
          "name": "commission",
          "type": "uint256"
        }
      ],
      "name": "LogAddedCurrency",
      "type": "event"
    },
    {
      "anonymous": false,
      "inputs": [
        {
          "indexed": false,
          "name": "unlockedAmount",
          "type": "uint256"
        },
        {
          "indexed": false,
          "name": "feeForGiving",
          "type": "uint256"
        }
      ],
      "name": "LogUnlockUnTrusted",
      "type": "event"
    },
    {
      "anonymous": false,
      "inputs": [
        {
          "indexed": false,
          "name": "withdrawer",
          "type": "address"
        },
        {
          "indexed": false,
          "name": "withdrawnAmount",
          "type": "uint256"
        }
      ],
      "name": "LogWithdrawFunds",
      "type": "event"
    },
    {
      "anonymous": false,
      "inputs": [
        {
          "indexed": false,
          "name": "destroyer",
          "type": "address"
        }
      ],
      "name": "LogDestruction",
      "type": "event"
    },
    {
      "constant": false,
      "inputs": [
        {
          "name": "name",
          "type": "bytes4"
        },
        {
          "name": "commission",
          "type": "uint256"
        }
      ],
      "name": "addCurrency",
      "outputs": [],
      "payable": false,
      "stateMutability": "nonpayable",
      "type": "function"
    },
    {
      "constant": false,
      "inputs": [
        {
          "name": "remittance",
          "type": "address"
        },
        {
          "name": "key",
          "type": "bytes32"
        }
      ],
      "name": "addRemittance",
      "outputs": [],
      "payable": true,
      "stateMutability": "payable",
      "type": "function"
    },
    {
      "constant": false,
      "inputs": [
        {
          "name": "pass1",
          "type": "string"
        },
        {
          "name": "pass2",
          "type": "string"
        }
      ],
      "name": "unlockUnTrustedRemittance",
      "outputs": [],
      "payable": false,
      "stateMutability": "nonpayable",
      "type": "function"
    },
    {
      "constant": false,
      "inputs": [
        {
          "name": "pass1",
          "type": "string"
        },
        {
          "name": "pass2",
          "type": "string"
        }
      ],
      "name": "unlockTrustedRemittance",
      "outputs": [],
      "payable": false,
      "stateMutability": "nonpayable",
      "type": "function"
    },
    {
      "constant": false,
      "inputs": [],
      "name": "withdrawExchangeShopMoney",
      "outputs": [],
      "payable": false,
      "stateMutability": "nonpayable",
      "type": "function"
    },
    {
      "constant": false,
      "inputs": [],
      "name": "withdrawFee",
      "outputs": [],
      "payable": false,
      "stateMutability": "nonpayable",
      "type": "function"
    },
    {
      "constant": false,
      "inputs": [],
      "name": "withdrawFunds",
      "outputs": [],
      "payable": false,
      "stateMutability": "nonpayable",
      "type": "function"
    },
    {
      "constant": false,
      "inputs": [],
      "name": "destroy",
      "outputs": [],
      "payable": false,
      "stateMutability": "nonpayable",
      "type": "function"
    },
    {
      "constant": false,
      "inputs": [],
      "name": "transferRemittanceAmount",
      "outputs": [],
      "payable": true,
      "stateMutability": "payable",
      "type": "function"
    }
  ],
  "bytecode": "0x6060604052341561000f57600080fd5b336000806101000a81548173ffffffffffffffffffffffffffffffffffffffff021916908373ffffffffffffffffffffffffffffffffffffffff1602179055506119168061005e6000396000f3006060604052600436106100c5576000357c0100000000000000000000000000000000000000000000000000000000900463ffffffff16806324600fc3146100ca57806331b6cc04146100df5780635270f6021461010857806383197ef01461011d57806389e569d0146101325780638da5cb5b1461017d5780638df8118d146101d25780638f7ed16414610272578063992de52b14610312578063aa10856a14610368578063d915da5c146103b5578063e941fa78146103f0578063e97818c414610405575b600080fd5b34156100d557600080fd5b6100dd61040f565b005b34156100ea57600080fd5b6100f2610546565b6040518082815260200191505060405180910390f35b341561011357600080fd5b61011b61054c565b005b341561012857600080fd5b61013061061a565b005b341561013d57600080fd5b61017b60048080357bffffffffffffffffffffffffffffffffffffffffffffffffffffffff1916906020019091908035906020019091905050610712565b005b341561018857600080fd5b610190610907565b604051808273ffffffffffffffffffffffffffffffffffffffff1673ffffffffffffffffffffffffffffffffffffffff16815260200191505060405180910390f35b34156101dd57600080fd5b610270600480803590602001908201803590602001908080601f0160208091040260200160405190810160405280939291908181526020018383808284378201915050505050509190803590602001908201803590602001908080601f0160208091040260200160405190810160405280939291908181526020018383808284378201915050505050509190505061092c565b005b341561027d57600080fd5b610310600480803590602001908201803590602001908080601f0160208091040260200160405190810160405280939291908181526020018383808284378201915050505050509190803590602001908201803590602001908080601f01602080910402602001604051908101604052809392919081815260200183838082843782019150505050505091905050610b16565b005b341561031d57600080fd5b61035260048080357bffffffffffffffffffffffffffffffffffffffffffffffffffffffff191690602001909190505061104a565b6040518082815260200191505060405180910390f35b341561037357600080fd5b61039f600480803573ffffffffffffffffffffffffffffffffffffffff16906020019091905050611062565b6040518082815260200191505060405180910390f35b6103ee600480803573ffffffffffffffffffffffffffffffffffffffff169060200190919080356000191690602001909190505061107a565b005b34156103fb57600080fd5b6104036112e5565b005b61040d6113b1565b005b6000600360003373ffffffffffffffffffffffffffffffffffffffff1673ffffffffffffffffffffffffffffffffffffffff1681526020019081526020016000205490506000600360003373ffffffffffffffffffffffffffffffffffffffff1673ffffffffffffffffffffffffffffffffffffffff168152602001908152602001600020819055503373ffffffffffffffffffffffffffffffffffffffff166108fc829081150290604051600060405180830381858888f1935050505015156104d857600080fd5b7f333d9f35320f28a9518fc6083975ac7d7465f020712cda7608ca073ea651f2643382604051808373ffffffffffffffffffffffffffffffffffffffff1673ffffffffffffffffffffffffffffffffffffffff1681526020018281526020019250505060405180910390a150565b61c35081565b60008060009054906101000a900473ffffffffffffffffffffffffffffffffffffffff1673ffffffffffffffffffffffffffffffffffffffff163373ffffffffffffffffffffffffffffffffffffffff161415156105a957600080fd5b600254905060006002819055506000809054906101000a900473ffffffffffffffffffffffffffffffffffffffff1673ffffffffffffffffffffffffffffffffffffffff166108fc829081150290604051600060405180830381858888f19350505050151561061757600080fd5b50565b6000809054906101000a900473ffffffffffffffffffffffffffffffffffffffff1673ffffffffffffffffffffffffffffffffffffffff163373ffffffffffffffffffffffffffffffffffffffff1614151561067557600080fd5b7fa162bacaab81fb81417d1f5ed71e711a87d92cdd3527edde5fa3c83a0640d18f33604051808273ffffffffffffffffffffffffffffffffffffffff1673ffffffffffffffffffffffffffffffffffffffff16815260200191505060405180910390a16000809054906101000a900473ffffffffffffffffffffffffffffffffffffffff1673ffffffffffffffffffffffffffffffffffffffff16ff5b6000809054906101000a900473ffffffffffffffffffffffffffffffffffffffff1673ffffffffffffffffffffffffffffffffffffffff163373ffffffffffffffffffffffffffffffffffffffff1614151561076d57600080fd5b81600060056000837bffffffffffffffffffffffffffffffffffffffffffffffffffffffff19167bffffffffffffffffffffffffffffffffffffffffffffffffffffffff19168152602001908152602001600020541480156107d357506000600460ff16115b15156107de57600080fd5b8160056000857bffffffffffffffffffffffffffffffffffffffffffffffffffffffff19167bffffffffffffffffffffffffffffffffffffffffffffffffffffffff19168152602001908152602001600020819055507fbe0ef4bfdd6b3fa622bcbad3005fc4b0d8f79eb54f656ddb7c1d27ce489a9d818360056000867bffffffffffffffffffffffffffffffffffffffffffffffffffffffff19167bffffffffffffffffffffffffffffffffffffffffffffffffffffffff191681526020019081526020016000205460405180837bffffffffffffffffffffffffffffffffffffffffffffffffffffffff19167bffffffffffffffffffffffffffffffffffffffffffffffffffffffff191681526020018281526020019250505060405180910390a1505050565b6000809054906101000a900473ffffffffffffffffffffffffffffffffffffffff1681565b60008060008060009054906101000a900473ffffffffffffffffffffffffffffffffffffffff1673ffffffffffffffffffffffffffffffffffffffff163373ffffffffffffffffffffffffffffffffffffffff1614151561098c57600080fd5b84846006600083836040518083805190602001908083835b6020831015156109c957805182526020820191506020810190506020830392506109a4565b6001836020036101000a03801982511681845116808217855250505050505090500182805190602001908083835b602083101515610a1c57805182526020820191506020810190506020830392506109f7565b6001836020036101000a0380198251168184511680821785525050505050509050019250505060405180910390206000191660001916815260200190815260200160002060000160149054906101000a900460ff161515610a7c57600080fd5b3073ffffffffffffffffffffffffffffffffffffffff16319450610aa087876113f4565b8094508195505050610ab483600187611678565b600660008560001916600019168152602001908152602001600020600080820160006101000a81549073ffffffffffffffffffffffffffffffffffffffff02191690556000820160146101000a81549060ff0219169055505050505050505050565b60008060008060009054906101000a900473ffffffffffffffffffffffffffffffffffffffff1673ffffffffffffffffffffffffffffffffffffffff163373ffffffffffffffffffffffffffffffffffffffff16141515610b7657600080fd5b84846006600083836040518083805190602001908083835b602083101515610bb35780518252602082019150602081019050602083039250610b8e565b6001836020036101000a03801982511681845116808217855250505050505090500182805190602001908083835b602083101515610c065780518252602082019150602081019050602083039250610be1565b6001836020036101000a0380198251168184511680821785525050505050509050019250505060405180910390206000191660001916815260200190815260200160002060000160149054906101000a900460ff161515610c6657600080fd5b3073ffffffffffffffffffffffffffffffffffffffff16319450610c8a87876113f4565b809450819550505060066000856000191660001916815260200190815260200160002060000160009054906101000a900473ffffffffffffffffffffffffffffffffffffffff1673ffffffffffffffffffffffffffffffffffffffff16600160009054906101000a900473ffffffffffffffffffffffffffffffffffffffff1673ffffffffffffffffffffffffffffffffffffffff161415610e0c57610d3283600087611678565b61c350600460008573ffffffffffffffffffffffffffffffffffffffff16638da5cb5b6000604051602001526040518163ffffffff167c0100000000000000000000000000000000000000000000000000000000028152600401602060405180830381600087803b1515610da557600080fd5b6102c65a03f11515610db657600080fd5b5050506040518051905073ffffffffffffffffffffffffffffffffffffffff1673ffffffffffffffffffffffffffffffffffffffff16815260200190815260200160002060008282540192505081905550610e1f565b61c3506002600082825401925050819055505b600660008560001916600019168152602001908152602001600020600080820160006101000a81549073ffffffffffffffffffffffffffffffffffffffff02191690556000820160146101000a81549060ff021916905550507fb3013d11635f60e0c91c3ca5d988db35b63f95e0d2c9a15b86dd1ddf204da28b600360008573ffffffffffffffffffffffffffffffffffffffff1663131519816000604051602001526040518163ffffffff167c0100000000000000000000000000000000000000000000000000000000028152600401602060405180830381600087803b1515610f0957600080fd5b6102c65a03f11515610f1a57600080fd5b5050506040518051905073ffffffffffffffffffffffffffffffffffffffff1673ffffffffffffffffffffffffffffffffffffffff16815260200190815260200160002054600460008673ffffffffffffffffffffffffffffffffffffffff16638da5cb5b6000604051602001526040518163ffffffff167c0100000000000000000000000000000000000000000000000000000000028152600401602060405180830381600087803b1515610fcf57600080fd5b6102c65a03f11515610fe057600080fd5b5050506040518051905073ffffffffffffffffffffffffffffffffffffffff1673ffffffffffffffffffffffffffffffffffffffff16815260200190815260200160002054604051808381526020018281526020019250505060405180910390a150505050505050565b60056020528060005260406000206000915090505481565b60036020528060005260406000206000915090505481565b6000809054906101000a900473ffffffffffffffffffffffffffffffffffffffff1673ffffffffffffffffffffffffffffffffffffffff163373ffffffffffffffffffffffffffffffffffffffff161415156110e15761c350341415156110e057600080fd5b5b81600073ffffffffffffffffffffffffffffffffffffffff168173ffffffffffffffffffffffffffffffffffffffff161415151561111e57600080fd5b8160066000826000191660001916815260200190815260200160002060000160149054906101000a900460ff1615151561115757600080fd5b60408051908101604052808573ffffffffffffffffffffffffffffffffffffffff1681526020016001151581525060066000856000191660001916815260200190815260200160002060008201518160000160006101000a81548173ffffffffffffffffffffffffffffffffffffffff021916908373ffffffffffffffffffffffffffffffffffffffff16021790555060208201518160000160146101000a81548160ff0219169083151502179055509050507f61accdea23875902443520938d1701687ec8dfda02c00ad51ff9e6ce6544bc203360066000866000191660001916815260200190815260200160002060000160009054906101000a900473ffffffffffffffffffffffffffffffffffffffff16604051808373ffffffffffffffffffffffffffffffffffffffff1673ffffffffffffffffffffffffffffffffffffffff1681526020018273ffffffffffffffffffffffffffffffffffffffff1673ffffffffffffffffffffffffffffffffffffffff1681526020019250505060405180910390a150505050565b6000600460003373ffffffffffffffffffffffffffffffffffffffff1673ffffffffffffffffffffffffffffffffffffffff1681526020019081526020016000205490506000600460003373ffffffffffffffffffffffffffffffffffffffff1673ffffffffffffffffffffffffffffffffffffffff168152602001908152602001600020819055503373ffffffffffffffffffffffffffffffffffffffff166108fc829081150290604051600060405180830381858888f1935050505015156113ae57600080fd5b50565b33600160006101000a81548173ffffffffffffffffffffffffffffffffffffffff021916908373ffffffffffffffffffffffffffffffffffffffff160217905550565b6000806000806000865111151561140a57600080fd5b6000855111151561141a57600080fd5b85856040518083805190602001908083835b602083101515611451578051825260208201915060208101905060208303925061142c565b6001836020036101000a03801982511681845116808217855250505050505090500182805190602001908083835b6020831015156114a4578051825260208201915060208101905060208303925061147f565b6001836020036101000a038019825116818451168082178552505050505050905001925050506040518091039020915060066000836000191660001916815260200190815260200160002060000160009054906101000a900473ffffffffffffffffffffffffffffffffffffffff1690508073ffffffffffffffffffffffffffffffffffffffff166343c268d787876040518363ffffffff167c0100000000000000000000000000000000000000000000000000000000028152600401808060200180602001838103835285818151815260200191508051906020019080838360005b838110156115a2578082015181840152602081019050611587565b50505050905090810190601f1680156115cf5780820380516001836020036101000a031916815260200191505b50838103825284818151815260200191508051906020019080838360005b838110156116085780820151818401526020810190506115ed565b50505050905090810190601f1680156116355780820380516001836020036101000a031916815260200191505b50945050505050600060405180830381600087803b151561165557600080fd5b6102c65a03f1151561166657600080fd5b50505081819350935050509250929050565b611722813073ffffffffffffffffffffffffffffffffffffffff1631038473ffffffffffffffffffffffffffffffffffffffff1663e5a6b10f6000604051602001526040518163ffffffff167c0100000000000000000000000000000000000000000000000000000000028152600401602060405180830381600087803b151561170157600080fd5b6102c65a03f1151561171257600080fd5b50505060405180519050846117f9565b600360008573ffffffffffffffffffffffffffffffffffffffff1663131519816000604051602001526040518163ffffffff167c0100000000000000000000000000000000000000000000000000000000028152600401602060405180830381600087803b151561179257600080fd5b6102c65a03f115156117a357600080fd5b5050506040518051905073ffffffffffffffffffffffffffffffffffffffff1673ffffffffffffffffffffffffffffffffffffffff16815260200190815260200160002060008282540192505081905550505050565b60008060008361185a5760056000867bffffffffffffffffffffffffffffffffffffffffffffffffffffffff19167bffffffffffffffffffffffffffffffffffffffffffffffffffffffff19168152602001908152602001600020546118b9565b600260056000877bffffffffffffffffffffffffffffffffffffffffffffffffffffffff19167bffffffffffffffffffffffffffffffffffffffffffffffffffffffff19168152602001908152602001600020548115156118b757fe5b045b915060648287028115156118c957fe5b049050806002600082825401925050819055508086039250505093925050505600a165627a7a7230582073ff08ab2b395ea67d8fed4dc38d21268e2fe24ee12e4aade68134909a4c3b3e0029",
  "source": "pragma solidity ^0.4.16;\nimport \"./IRemittance.sol\";\nimport \"./IExchangeShop.sol\";\n\ncontract ExchangeShop is IExchangeShop {\n\n    struct Remittance {\n        address remittanceAddress;  \n        bool isExistant;     \n    }\n\n    uint    public constant REMITTANCE_FEE = 50000 wei;\n    address public owner;\n    address private transferSender;\n    uint    private exchangeShopMoney;\n\n    mapping(address => uint) public unlockedRemittances;\n    mapping(address => uint) private fees;\n    mapping(bytes4 => uint) public currencies;\n    mapping(bytes32 => Remittance) private remittances;\n\n\n    event LogAddedRemmitance(address remittanceOwner, address remittanceAddress);\n    event LogAddedCurrency(bytes4 name, uint commission);\n    event LogUnlockUnTrusted(uint unlockedAmount, uint feeForGiving);\n    event LogWithdrawFunds(address withdrawer, uint withdrawnAmount);\n    event LogDestruction(address destroyer);\n\n    modifier onlyOwner(){\n        require(msg.sender == owner);\n        _;\n    }\n\n    modifier onlyValidAddress(address _address) {\n        require(_address != address(0));\n        _;\n    }\n\n    modifier onlyInExistentCurrency(bytes4 name){\n        require(currencies[name] == uint(0) && name.length > 0);\n        _;\n    }\n\n    modifier requireFee(){\n        if (msg.sender != owner) {\n            require(msg.value == REMITTANCE_FEE);\n        }\n        _;\n    }\n\n    modifier onlyInExistentRemittance(bytes32 key){\n        require(!remittances[key].isExistant);\n        _;\n    }\n\n    modifier onlyExistentRemittance(string pass1, string pass2){\n        require(remittances[keccak256(pass1, pass2)].isExistant);\n        _;\n    }\n\n    function ExchangeShop() public {\n        owner = msg.sender;\n    }\n\n    function addCurrency(bytes4 name, uint commission) public onlyOwner onlyInExistentCurrency(name) {\n        currencies[name] = commission;    \n\n        LogAddedCurrency(name, currencies[name]);\n    }\n\n    function addRemittance(address remittance, bytes32 key) public payable \n            requireFee onlyValidAddress(remittance) onlyInExistentRemittance(key) \n    {\n        remittances[key] = Remittance({remittanceAddress: remittance, isExistant: true});\n        \n        LogAddedRemmitance(msg.sender, remittances[key].remittanceAddress);\n    }\n\n    function unlockUnTrustedRemittance(string pass1, string pass2) public onlyOwner onlyExistentRemittance(pass1, pass2) {\n        uint balanceBeforeUnlock = this.balance;\n        bytes32 key;\n        IRemittance remittance;\n        (key, remittance) = unlock(pass1, pass2);\n\n        if (transferSender == remittances[key].remittanceAddress) {\n            addUnlockedRemittance(remittance, false, balanceBeforeUnlock);\n            fees[remittance.owner()] += REMITTANCE_FEE;\n        }else {\n            exchangeShopMoney += REMITTANCE_FEE;\n        }\n\n        delete(remittances[key]);\n        LogUnlockUnTrusted(unlockedRemittances[remittance.to()], fees[remittance.owner()]);\n    } \n\n    function unlockTrustedRemittance(string pass1, string pass2) public onlyOwner onlyExistentRemittance(pass1, pass2) {\n        uint balanceBeforeUnlock = this.balance;\n        bytes32 key;\n        IRemittance remittance;\n        (key, remittance) = unlock(pass1, pass2);\n        addUnlockedRemittance(remittance, true, balanceBeforeUnlock);\n\n        delete(remittances[key]);\n    }\n\n    function unlock(string pass1, string pass2) private returns(bytes32 remittanceKey, IRemittance remittanceInstance) {\n        require(bytes(pass1).length > 0);\n        require(bytes(pass2).length > 0);\n\n        bytes32 key = keccak256(pass1, pass2);\n        IRemittance remittance = IRemittance(remittances[key].remittanceAddress);\n        remittance.withdrawSecure(pass1, pass2);\n\n        return (key, remittance);\n    }\n\n    function addUnlockedRemittance(IRemittance remittance, bool isTrusted, uint balanceBeforeUnlock) private {\n        unlockedRemittances[remittance.to()] += calcMoneyWithCommission(\n                                                                            this.balance - balanceBeforeUnlock,\n                                                                            remittance.currency(),\n                                                                            isTrusted\n                                                                       );\n    }\n\n    function calcMoneyWithCommission(uint amount, bytes4 currency, bool isTrusted) private returns(uint convertedAmount) {\n        uint commissionPercent = isTrusted ? currencies[currency] / 2 : currencies[currency];\n        uint commission = (amount * commissionPercent) / 100;\n        exchangeShopMoney += commission;\n        return amount - commission;\n    }\n\n    function withdrawExchangeShopMoney() public onlyOwner {\n        uint currentMoney = exchangeShopMoney;\n        exchangeShopMoney = 0;\n        owner.transfer(currentMoney);\n    }\n\n    function withdrawFee() public {\n        uint fee = fees[msg.sender];\n        fees[msg.sender] = 0;\n        msg.sender.transfer(fee);\n    }\n\n    function withdrawFunds() public {\n        uint remittanceAmount = unlockedRemittances[msg.sender];\n        unlockedRemittances[msg.sender] = 0;\n        msg.sender.transfer(remittanceAmount);\n        \n        LogWithdrawFunds(msg.sender, remittanceAmount);\n    }\n\n    function destroy() public onlyOwner {\n        LogDestruction(msg.sender);\n\n        selfdestruct(owner);\n    }\n\n    function transferRemittanceAmount() external payable {\n        transferSender = msg.sender;\n    }  \n}",
  "sourcePath": "/home/lyubomir/Desktop/Dapps/Remittance/contracts/ExchangeShop.sol",
  "compiler": {
    "name": "solc",
    "version": "0.4.19+commit.c4cbbb05.Emscripten.clang"
  },
  "schemaVersion": "2.0.0",
  "updatedAt": "2018-03-25T16:32:37.166Z"
}