{
  "contractName": "Remittance",
  "abi": [
    {
      "constant": true,
      "inputs": [],
      "name": "deadline",
      "outputs": [
        {
          "name": "",
          "type": "uint256"
        }
      ],
      "payable": false,
      "stateMutability": "view",
      "type": "function"
    },
    {
      "constant": true,
      "inputs": [],
      "name": "exchangeShop",
      "outputs": [
        {
          "name": "",
          "type": "address"
        }
      ],
      "payable": false,
      "stateMutability": "view",
      "type": "function"
    },
    {
      "inputs": [
        {
          "name": "to",
          "type": "address"
        },
        {
          "name": "duration",
          "type": "uint256"
        },
        {
          "name": "currency",
          "type": "bytes4"
        },
        {
          "name": "pass1",
          "type": "string"
        },
        {
          "name": "pass2",
          "type": "string"
        },
        {
          "name": "exchangeShopAddr",
          "type": "address"
        }
      ],
      "payable": true,
      "stateMutability": "payable",
      "type": "constructor"
    },
    {
      "anonymous": false,
      "inputs": [
        {
          "indexed": false,
          "name": "withdrawer",
          "type": "address"
        }
      ],
      "name": "LogSecureWithdraw",
      "type": "event"
    },
    {
      "anonymous": false,
      "inputs": [
        {
          "indexed": false,
          "name": "on",
          "type": "uint256"
        }
      ],
      "name": "LogWitdrawFunds",
      "type": "event"
    },
    {
      "anonymous": false,
      "inputs": [
        {
          "indexed": false,
          "name": "destroyer",
          "type": "address"
        }
      ],
      "name": "LogDestruction",
      "type": "event"
    },
    {
      "constant": false,
      "inputs": [
        {
          "name": "pass1",
          "type": "string"
        },
        {
          "name": "pass2",
          "type": "string"
        }
      ],
      "name": "withdrawSecure",
      "outputs": [],
      "payable": false,
      "stateMutability": "nonpayable",
      "type": "function"
    },
    {
      "constant": false,
      "inputs": [],
      "name": "withdrawFunds",
      "outputs": [],
      "payable": false,
      "stateMutability": "nonpayable",
      "type": "function"
    },
    {
      "constant": true,
      "inputs": [],
      "name": "getKey",
      "outputs": [
        {
          "name": "remittanceKey",
          "type": "bytes32"
        }
      ],
      "payable": false,
      "stateMutability": "view",
      "type": "function"
    },
    {
      "constant": true,
      "inputs": [],
      "name": "to",
      "outputs": [
        {
          "name": "toAddress",
          "type": "address"
        }
      ],
      "payable": false,
      "stateMutability": "view",
      "type": "function"
    },
    {
      "constant": true,
      "inputs": [],
      "name": "owner",
      "outputs": [
        {
          "name": "ownerAddress",
          "type": "address"
        }
      ],
      "payable": false,
      "stateMutability": "view",
      "type": "function"
    },
    {
      "constant": true,
      "inputs": [],
      "name": "currency",
      "outputs": [
        {
          "name": "remittanceCurrency",
          "type": "bytes4"
        }
      ],
      "payable": false,
      "stateMutability": "view",
      "type": "function"
    },
    {
      "constant": false,
      "inputs": [],
      "name": "destroy",
      "outputs": [],
      "payable": false,
      "stateMutability": "nonpayable",
      "type": "function"
    }
  ],
  "bytecode": "0x6060604052604051610bec380380610bec8339810160405280805190602001909190805190602001909190805190602001909190805182019190602001805182019190602001805190602001909190505084600081118015610062575060058111155b151561006d57600080fd5b8460007c0100000000000000000000000000000000000000000000000000000000027bffffffffffffffffffffffffffffffffffffffffffffffffffffffff1916817bffffffffffffffffffffffffffffffffffffffffffffffffffffffff1916141515156100db57600080fd5b87600073ffffffffffffffffffffffffffffffffffffffff168173ffffffffffffffffffffffffffffffffffffffff161415151561011857600080fd5b6000865111151561012857600080fd5b6000855111151561013857600080fd5b336000806101000a81548173ffffffffffffffffffffffffffffffffffffffff021916908373ffffffffffffffffffffffffffffffffffffffff16021790555088600160006101000a81548173ffffffffffffffffffffffffffffffffffffffff021916908373ffffffffffffffffffffffffffffffffffffffff16021790555087430160048190555086600160146101000a81548163ffffffff02191690837c01000000000000000000000000000000000000000000000000000000009004021790555083600360006101000a81548173ffffffffffffffffffffffffffffffffffffffff021916908373ffffffffffffffffffffffffffffffffffffffff16021790555085856040518083805190602001908083835b6020831015156102755780518252602082019150602081019050602083039250610250565b6001836020036101000a03801982511681845116808217855250505050505090500182805190602001908083835b6020831015156102c857805182526020820191506020810190506020830392506102a3565b6001836020036101000a038019825116818451168082178552505050505050905001925050506040518091039020600281600019169055505050505050505050506108d4806103186000396000f300606060405260043610610099576000357c0100000000000000000000000000000000000000000000000000000000900463ffffffff168063131519811461009e57806324600fc3146100f357806329dcb0cf1461010857806343c268d71461013157806382678dd61461017357806383197ef0146101a45780638da5cb5b146101b9578063be925f101461020e578063e5a6b10f14610263575b600080fd5b34156100a957600080fd5b6100b16102ca565b604051808273ffffffffffffffffffffffffffffffffffffffff1673ffffffffffffffffffffffffffffffffffffffff16815260200191505060405180910390f35b34156100fe57600080fd5b6101066102f4565b005b341561011357600080fd5b61011b610410565b6040518082815260200191505060405180910390f35b341561013c57600080fd5b610171600480803590602001908201803590602001919091929080359060200190820180359060200191909192905050610416565b005b341561017e57600080fd5b6101866106a8565b60405180826000191660001916815260200191505060405180910390f35b34156101af57600080fd5b6101b761070d565b005b34156101c457600080fd5b6101cc610826565b604051808273ffffffffffffffffffffffffffffffffffffffff1673ffffffffffffffffffffffffffffffffffffffff16815260200191505060405180910390f35b341561021957600080fd5b61022161084f565b604051808273ffffffffffffffffffffffffffffffffffffffff1673ffffffffffffffffffffffffffffffffffffffff16815260200191505060405180910390f35b341561026e57600080fd5b610276610875565b60405180827bffffffffffffffffffffffffffffffffffffffffffffffffffffffff19167bffffffffffffffffffffffffffffffffffffffffffffffffffffffff1916815260200191505060405180910390f35b6000600160009054906101000a900473ffffffffffffffffffffffffffffffffffffffff16905090565b6000809054906101000a900473ffffffffffffffffffffffffffffffffffffffff1673ffffffffffffffffffffffffffffffffffffffff163373ffffffffffffffffffffffffffffffffffffffff1614151561034f57600080fd5b6004544311151561035f57600080fd5b6000809054906101000a900473ffffffffffffffffffffffffffffffffffffffff1673ffffffffffffffffffffffffffffffffffffffff166108fc3073ffffffffffffffffffffffffffffffffffffffff16319081150290604051600060405180830381858888f1935050505015156103d757600080fd5b7f8d2ec50f9bba640931d94d9ebfd23add60233f429b325980259178e13b726cf9436040518082815260200191505060405180910390a1565b60045481565b6000600360009054906101000a900473ffffffffffffffffffffffffffffffffffffffff1673ffffffffffffffffffffffffffffffffffffffff163373ffffffffffffffffffffffffffffffffffffffff161415151561047557600080fd5b84848080601f01602080910402602001604051908101604052809392919081815260200183838082843782019150505050505083838080601f0160208091040260200160405190810160405280939291908181526020018383808284378201915050505050506002546000191682826040518083805190602001908083835b60208310151561051957805182526020820191506020810190506020830392506104f4565b6001836020036101000a03801982511681845116808217855250505050505090500182805190602001908083835b60208310151561056c5780518252602082019150602081019050602083039250610547565b6001836020036101000a038019825116818451168082178552505050505050905001925050506040518091039020600019161415156105aa57600080fd5b3392508273ffffffffffffffffffffffffffffffffffffffff1663e97818c43073ffffffffffffffffffffffffffffffffffffffff16316040518263ffffffff167c01000000000000000000000000000000000000000000000000000000000281526004016000604051808303818588803b151561062757600080fd5b6125ee5a03f1151561063857600080fd5b505050507fa771cbff0958f037845eccd2dcf8fa49f15e7716120b0c05130ed88e95b2a5cc33604051808273ffffffffffffffffffffffffffffffffffffffff1673ffffffffffffffffffffffffffffffffffffffff16815260200191505060405180910390a150505050505050565b60008060009054906101000a900473ffffffffffffffffffffffffffffffffffffffff1673ffffffffffffffffffffffffffffffffffffffff163373ffffffffffffffffffffffffffffffffffffffff1614151561070557600080fd5b600254905090565b6000809054906101000a900473ffffffffffffffffffffffffffffffffffffffff1673ffffffffffffffffffffffffffffffffffffffff163373ffffffffffffffffffffffffffffffffffffffff1614151561076857600080fd5b7fa162bacaab81fb81417d1f5ed71e711a87d92cdd3527edde5fa3c83a0640d18f6000809054906101000a900473ffffffffffffffffffffffffffffffffffffffff16604051808273ffffffffffffffffffffffffffffffffffffffff1673ffffffffffffffffffffffffffffffffffffffff16815260200191505060405180910390a16000809054906101000a900473ffffffffffffffffffffffffffffffffffffffff1673ffffffffffffffffffffffffffffffffffffffff16ff5b60008060009054906101000a900473ffffffffffffffffffffffffffffffffffffffff16905090565b600360009054906101000a900473ffffffffffffffffffffffffffffffffffffffff1681565b6000600160149054906101000a90047c0100000000000000000000000000000000000000000000000000000000029050905600a165627a7a72305820e574f85ae147c796245d615fde79ec4c5af3b4b8a5bc381c6a5ddece90d5786f0029",
  "source": "pragma solidity ^0.4.16;\nimport \"./IRemittance.sol\";\nimport \"./IExchangeShop.sol\";\n\ncontract Remittance is IRemittance {\n\n    address private contractOwner;\n    address private toWhom;\n    bytes4  private currencyName;\n    bytes32 private key;\n    address public exchangeShop;\n    uint    public deadline;\n    uint    private constant DURATION_LIMIT = 5;\n\n    event LogSecureWithdraw(address withdrawer);\n    event LogWitdrawFunds(uint on);\n    event LogDestruction(address destroyer);\n\n    modifier onlyOwner(){\n        require(msg.sender == contractOwner);\n        _;\n    }\n\n    modifier onlyValidDuration(uint duration){\n        require(duration > 0 && duration <= DURATION_LIMIT);\n        _;\n    }\n\n    modifier onlyValidCurrency(bytes4 currency) {\n        require(currency != bytes4(0));\n        _;\n    }\n\n    modifier onlyValidTo(address to){\n        require(to != address(0));\n        _;\n    }\n\n    modifier onlyValidKey(string pass1, string pass2){\n        require(keccak256(pass1, pass2) == key);\n        _;\n    }\n\n    modifier onlyExchangeShop(){\n        require(msg.sender != exchangeShop);\n        _;\n    }\n\n    modifier onlyAfterDeadline(){\n        require(block.number > deadline);\n        _;\n    }\n\n    function Remittance(address to, uint duration, bytes4 currency, string pass1, string pass2, address exchangeShopAddr) public payable \n            onlyValidDuration(duration) onlyValidCurrency(currency) onlyValidTo(to)\n    { \n        require(bytes(pass1).length > 0);\n        require(bytes(pass2).length > 0);\n\n        contractOwner = msg.sender;\n        toWhom = to;\n        deadline = block.number + duration;\n        currencyName = currency;\n        exchangeShop = exchangeShopAddr;\n        key = keccak256(pass1, pass2);\n    }\n\n    function withdrawSecure(string pass1, string pass2) external onlyExchangeShop onlyValidKey(pass1, pass2) {\n        IExchangeShop shop = IExchangeShop(msg.sender);\n        shop.transferRemittanceAmount.value(this.balance)();\n        LogSecureWithdraw(msg.sender);\n    }\n\n    function withdrawFunds() public onlyOwner onlyAfterDeadline {\n        contractOwner.transfer(this.balance);\n        LogWitdrawFunds(block.number);\n    }\n\n    function getKey() public view onlyOwner returns(bytes32 remittanceKey) {\n        return key;\n    }\n\n    function to() public view returns(address toAddress) { return toWhom; }\n    function owner() public view returns(address ownerAddress) { return contractOwner; }\n    function currency() public view returns(bytes4 remittanceCurrency) { return currencyName; }\n\n    function destroy() public onlyOwner {\n        LogDestruction(contractOwner);\n        selfdestruct(contractOwner);\n    }\n}",
  "sourcePath": "/home/lyubomir/Desktop/Dapps/Remittance/contracts/Remittance.sol",
  "compiler": {
    "name": "solc",
    "version": "0.4.19+commit.c4cbbb05.Emscripten.clang"
  },
  "schemaVersion": "2.0.0",
  "updatedAt": "2018-03-25T16:32:37.172Z"
}