{
  "contractName": "ValidExchangeShop",
  "abi": [
    {
      "constant": true,
      "inputs": [
        {
          "name": "",
          "type": "bytes32"
        }
      ],
      "name": "currencies",
      "outputs": [
        {
          "name": "",
          "type": "uint256"
        }
      ],
      "payable": false,
      "stateMutability": "view",
      "type": "function"
    },
    {
      "constant": true,
      "inputs": [],
      "name": "owner",
      "outputs": [
        {
          "name": "",
          "type": "address"
        }
      ],
      "payable": false,
      "stateMutability": "view",
      "type": "function"
    },
    {
      "constant": true,
      "inputs": [
        {
          "name": "",
          "type": "address"
        }
      ],
      "name": "unlockedRemittances",
      "outputs": [
        {
          "name": "",
          "type": "uint256"
        }
      ],
      "payable": false,
      "stateMutability": "view",
      "type": "function"
    },
    {
      "constant": true,
      "inputs": [],
      "name": "deadlineLimit",
      "outputs": [
        {
          "name": "",
          "type": "uint256"
        }
      ],
      "payable": false,
      "stateMutability": "view",
      "type": "function"
    },
    {
      "constant": true,
      "inputs": [
        {
          "name": "",
          "type": "bytes32"
        }
      ],
      "name": "lockedRemittances",
      "outputs": [
        {
          "name": "amount",
          "type": "uint256"
        },
        {
          "name": "deadline",
          "type": "uint256"
        },
        {
          "name": "to",
          "type": "address"
        },
        {
          "name": "owner",
          "type": "address"
        },
        {
          "name": "isExists",
          "type": "bool"
        }
      ],
      "payable": false,
      "stateMutability": "view",
      "type": "function"
    }
  ],
  "bytecode": "0x6060604052341561000f57600080fd5b6103358061001e6000396000f30060606040526004361061006d576000357c0100000000000000000000000000000000000000000000000000000000900463ffffffff168063370adc95146100725780638da5cb5b146100ad578063aa10856a14610102578063dead69b31461014f578063e4ee9fc214610178575b600080fd5b341561007d57600080fd5b61009760048080356000191690602001909190505061022b565b6040518082815260200191505060405180910390f35b34156100b857600080fd5b6100c0610243565b604051808273ffffffffffffffffffffffffffffffffffffffff1673ffffffffffffffffffffffffffffffffffffffff16815260200191505060405180910390f35b341561010d57600080fd5b610139600480803573ffffffffffffffffffffffffffffffffffffffff16906020019091905050610268565b6040518082815260200191505060405180910390f35b341561015a57600080fd5b610162610280565b6040518082815260200191505060405180910390f35b341561018357600080fd5b61019d600480803560001916906020019091905050610286565b604051808681526020018581526020018473ffffffffffffffffffffffffffffffffffffffff1673ffffffffffffffffffffffffffffffffffffffff1681526020018373ffffffffffffffffffffffffffffffffffffffff1673ffffffffffffffffffffffffffffffffffffffff168152602001821515151581526020019550505050505060405180910390f35b60026020528060005260406000206000915090505481565b6000809054906101000a900473ffffffffffffffffffffffffffffffffffffffff1681565b60046020528060005260406000206000915090505481565b60015481565b60036020528060005260406000206000915090508060000154908060010154908060020160009054906101000a900473ffffffffffffffffffffffffffffffffffffffff16908060030160009054906101000a900473ffffffffffffffffffffffffffffffffffffffff16908060030160149054906101000a900460ff169050855600a165627a7a72305820bda72147ed015b5315a5f7eb3e3f32993fb4a62f5fb0bf529c9ba742eab9a1040029",
  "source": "pragma solidity ^0.4.16;\n\ncontract ValidExchangeShop {\n\n    struct Remittance {\n        uint amount;\n        uint deadline;\n        address to;\n        address owner;\n        bool isExists;        \n    }\n\n    address public owner;\n    uint    public deadlineLimit;\n    mapping(bytes32 => uint) public currencies;\n    mapping(bytes32 => Remittance) public lockedRemittances;\n    mapping(address => uint) public unlockedRemittances;\n    uint    internal commissionsAmount;\n\n    modifier onlyOwner(){\n        require(msg.sender == owner);\n        _;\n    }\n\n    modifier onlyInDeadline(uint deadline){\n        require(deadline > 0 && deadline <= deadlineLimit);\n        _;\n    }\n\n    modifier onlyAfterDeadline(bytes32 key){\n        require(block.number < lockedRemittances[key].deadline);\n        _;\n    }\n\n    modifier onlyExistentKey(bytes32 pass1, bytes32 pass2){\n        require(lockedRemittances[keccak256(pass1, pass2)].isExists);\n        _;\n    }\n\n    modifier onlyInExistentKey(bytes32 key){\n        require(!lockedRemittances[key].isExists && key.length > 0);\n        _;\n    }\n\n    modifier onlyValidTo(address to){\n         require(to != address(0));\n        _;\n    }\n\n    modifier onlyInExistentCurrency(bytes32 name){\n        require(currencies[name] == uint(0) && name.length > 0);\n        _;\n    }\n\n    modifier onlyExistentCurrency(bytes32 name){\n        require(currencies[name] != uint(0));\n        _;\n    }\n\n    modifier onlyRemittanceOwner(bytes32 key){\n        require(lockedRemittances[key].owner == msg.sender);\n        _;\n    }\n}",
  "sourcePath": "/home/lyubomir/Desktop/Dapps/Remittance/contracts/ValidExchangeShop.sol",
  "compiler": {
    "name": "solc",
    "version": "0.4.19+commit.c4cbbb05.Emscripten.clang"
  },
  "schemaVersion": "2.0.0",
  "updatedAt": "2018-03-22T08:18:22.182Z"
}